:040000000C94470015
:100004000C9400000C9400000C9400000C9400006C
:100014000C9400000C9400000C9400000C9400005C
:100024000C9400000C9400000C9400000C9400004C
:100034000C9400000C9400000C9400000C9400003C
:100044000C9400000C9400000C9400000C9400002C
:100054001027E80364000A000100001000011000EA
:10006400010000000000000000000000000000008B
:100074000000000001030206040C080925640000C6
:1000840080C00200600184000000F894EE27ECBBFD
:10009400F1E0FBBFEBBFE5BF8DE0A2E0BB27ED9332
:1000A4008A95E9F780E094E0A0E6ED930197E9F7FB
:1000B400E6E8F0E085919591009761F0A591B591FE
:1000C40005901590BF01F00105900D920197E1F79D
:1000D400FB01F0CFEFE5EDBFE4E0EEBFC0E6D1E019
:1000E4000C947400A29AA39AA49AA59AAA98AB987D
:1000F400AC98AD98A0E1DFD0ACD0E4EFF1E0FA9396
:10010400EA93E2E7EA93E6E6EA93A1E0B0E002D0FC
:10011400FFCFFFCFBA93AA936A978AE1A0E0B0E039
:10012400E6E6F0E00E94FB030E94EF03A8A1A636D6
:1001340061F5A9A1AC3699F430E00E944C0374F443
:1001440010E0163048F405E0023020F00E9453031A
:100154000150FACF1F5FF5CF3F5FEFCF15C0A9A1C4
:10016400A23791F430E00E944C0374F410E016308E
:1001740048F402E0063020F40E9453030F5FFACFE4
:100184001F5FF5CF3F5FEFCF33C0A8A1A83681F53D
:10019400A9A1AC36B1F430E00E944C038CF410E019
:1001A400163060F408E0013038F0E02FF0E03197C9
:1001B4000E945D030150F7CF1F5FF2CF3F5FECCF8A
:1001C40017C0A9A1A237A1F430E00E944C0384F423
:1001D40010E0163058F400E0083030F4E02FF0E07E
:1001E4000E945D030F5FF8CF1F5FF3CF3F5FEDCF3A
:1001F4000E94F603A4960895AA93EBB3EF70AE2F72
:10020400E881E07FEA2BEBBB8DE08A95F1F7DB9A7E
:100214008DE08A95F1F7DB988DE08A95F1F777C048
:10022400AA93A881E9DFE881E295E883A881E4DF65
:1002340085E88A95F1F76BC0AA93E881F0E0E05A6B
:10024400FE4FE081A981AE0FEBDF598048802296F2
:100254000895A2E00E948C03ACE0E2DFA1E00E94DA
:100264008C03E0E04E2E5E2E0895AA93A881AA3056
:1002740011F0571448F0E0E0EA934394A42DDCDF36
:10028400A881AA3009F443C05394D99AA881C8DF3D
:10029400D9983DC0BA93AA931A93A981BA81ED91D2
:1002A400A983BA831E2FE03019F0A12FDEDFF5CF2A
:1002B400188123960895AA93EAB3E06FEABBD39A10
:1002C400D19AD29ADB98D998DA987880E881E05864
:1002D400E0936201E881E054E0936301A4E1B0E0BB
:1002E4000E94C6030E9492030E9492030E949203FA
:1002F400A0E282DF88EC90E00197F1F7A8E290DFBA
:10030400A4E08EDFA5E88CDFA6E08ADFA2DF2196D9
:100314000895BA93AA931A930A93AA81BB81129659
:100324000E94E003309759F1AA81BB8114960E9480
:10033400E0038F01309761F00230E0E01E0798F08F
:10034400F80131978F01AA81BB811496ED93FC9338
:10035400AA81BB811296ED91FD913196FE93EE93A5
:100364003197AC81A083AA81BB810E94E003FF2363
:100374002AF0ED91FD913196FE93EE9306C0AA8189
:10038400BB81EFEFFFEFED93FC9319810881259674
:100394000895BA93AA9326970E94ED0310E0AC85C2
:1003A400BD85E0E0F0E0ED93FC93EA89FB893196AA
:1003B400EA8BFB8B3197E4912E2FE03009F415C1C1
:1003C400E12FE03039F4253211F411E002C00E942B
:1003D4009A030AC1E130A9F4253219F40E949A0360
:1003E40002C112E040E000E02D3211F401E0FCC053
:1003F4002B3211F44BE2F8C0203211F440E2F4C085
:1004040002C0E23039F450E013E0203311F4006804
:10041400EBC003C0E33009F0E7C0203310F02A3307
:1004240008F007C0AAE05A9F502DE22FE0535E0F58
:10043400DBC0E22FE33649F40E94A103E889F9897D
:10044400A481AA930E94A703CEC0E33741F40E947B
:10045400A1030E94AD030E9433031E2F0AC0E0379C
:1004640061F40E94A1030E94AD030E943F031E2F6A
:10047400086002600F7730E034C0E43611F0E936EA
:1004840011F4046002C0E53731F4E4E5F0E0EE83F2
:10049400FF8315E00CC0E83511F4086003C0E837A9
:1004A40009F0A1C0EEE5F0E0EE83FF8314E002FF63
:1004B40014C00E94A1030E94B703AB85AA233AF497
:1004C400EA85FB850E94D403EA87FB874DE240302E
:1004D40011F01F5F01C00B7F04C00E94A1030E94A2
:1004E400B70300FD11C0151778F407FF08C002FF19
:1004F40004C00B7F242F115001C020E301C020E26F
:100504000E949A035150EFCF312F01FF17C03030B2
:10051400A1F003FF06C0EE81FF812591EE83FF83E6
:1005240005C0AE81BF812D91AE83BF830E949A0323
:10053400503009F051503150EACF4BC020E3EE81E6
:10054400FF810E94E403E887F987EE81FF813296F8
:10055400EE83FF83E885F985AA85BB85AE17BF07BF
:1005640050F02F5FA885B985EA85FB85EA1BFB0B54
:10057400EA87FB87EFCF2A3328F003FF02C0295F05
:1005840001C0295D04FD1AC0213320F4A885B98572
:10059400119709F409C0531710F000FF01C013C0EC
:1005A40020E207FF0BC020E3006102FF07C00B7FBE
:1005B4004A930E94A703503009F051500E949A03B5
:1005C400503009F051503150A885B985129708F080
:1005D400B5CF00FF08C0503031F05150E0E2EA934B
:1005E4000E94A703F8CF10E0E0CEAC85BD850E9441
:1005F400E0030E94F40364960895FF92F82E269770
:100604000E94EF030E94BF03309719F4EFEFFFEF4E
:1006140023C0DE0116960E94D0038D010E94BF0301
:10062400EE83FF83E0E0E887E987DE011A960E9403
:10063400D0030E94E003FA93EA931A930A93EBE837
:10064400F1E0FA93EA93DE011A96A3DE9F01AE81EC
:10065400BF81E0E0EC93F9010E94F6032A96FF9033
:100664000895BA93AA93A991B991EE27FF276D91A2
:10067400662311F03196FBCF0895BA93AA93AA2763
:10068400BB27E991F9910590002011F01196FBCF59
:10069400FD010895EE8DFF8DA32FB0E0AE17BF07C7
:1006A4000895AAA1BBA10E94C603E02FA1E00E9465
:1006B400D803E5BB0895DE015696AE0FBF1FEC913B
:1006C400EE0FEE0FE5BB0E942B01E1E0EA93A0E000
:1006D4000E941E01FE013496FA93EA93E0E8F0E0EA
:1006E400FA93EA93E02FF0E0DE015A96AE0FBF1FB3
:1006F400EC91FF27662777270E94E80384E00E9495
:10070400FF022896DE0114960E944C01AAA1BBA107
:100714000C94C6030E941201A3E0B0E00C94C6033B
:10072400A0E30E94FE0088EC90E00197F1F70895A1
:100734002A93AD85BE85EF85F88909950895E889E2
:10074400F9893497E88BF98B0895AD85BE85EF85DB
:10075400F88909950895A889B98914960E94E00337
:10076400EE83FF83AE81BF810895A889B989149669
:100774000E94E003EA87FB870895DE011C960E942D
:10078400D0030E94E0030895109639F080ED97E0BD
:100794000197F1F7A8951197C9F708950024AF0DB3
:1007A400B01D0895F195E195F0400895EE230E2EC5
:1007B400EA2F19F0EE0F0A94E9F70895ED91FC91F0
:1007C400119708950590F491E02D08957A936A9312
:1007D400FA93EA9308955A934A933A932A931A936D
:1007E4000A9308955D814C813B812A811981088196
:1007F4000895AC0FBD1F05900D928A95E1F70895F9
:00000001FF
